:020000040800F2
:100000001009002085010008433D0008B5390008AB
:1000100000000000000000000000000000000000E0
:10002000000000000000000000000000473D000844
:100030000000000000000000453D0008493D0008A8
:100040009701000897010008970100089701000830
:100050009701000897010008970100089701000820
:100060009701000897010008970100089701000810
:100070009701000897010008970100089701000800
:10008000553D0008653D000897010008000000008C
:1000900097010008970100089701000897010008E0
:1000A00097010008970100089701000897010008D0
:1000B00097010008970100089701000897010008C0
:1000C00000F002F800F04EF80CA030C808382418F0
:1000D0002D18671EA246AB4654465D46AC4201D180
:1000E00000F040F87E460F3EB6460FCC0126334264
:1000F00000D0FB1A3343A246AB461847004E00001F
:10010000204E0000103A02D378C878C1FAD85207BE
:1001100001D330C830C101D504680C6070470000BD
:100120000023002400250026103A01D378C1FBD813
:10013000520700D330C100D50B60704710B5662957
:1001400002D104F051FE10BD002010BD1FB500F01B
:10015000D1FE04000020002104F0D6FCE0601FBDA9
:1001600010B510BD01F0C2FA1146FFF7EFFF04F021
:10017000D9F901F0DAFA03B4FFF7F2FF03BC01F09A
:1001800085FB00000748804707480047FEE7FEE779
:10019000FEE7FEE7FEE7FEE704480549054A064B91
:1001A00070470000513D0008C10000081003002006
:1001B000100900201005002010050020FEB504469F
:1001C00010460D46184373D0A6468C460020A41A4C
:1001D00001469D4167D36646002701243D46B61A75
:1001E0009D4102D313463A462124654676462F04A4
:1001F000360C3E432D0CB61A9D4104D3150C1B043E
:100200002B4312041034654676462F06360A3E43C9
:100210002D0AB61A9D4104D3150E1B022B43120260
:100220000834654676462F0736093E432D09B61A2F
:100230009D4104D3150F1B012B431201241D65465C
:100240007646AF07B6083E43AD08B61A9D4104D3C3
:10025000950F9B002B439200A41C65467646EF0742
:1002600076083E436D08B61A9D411AD392185B4139
:10027000641C16E00018764665464941B71A9D4150
:100280000191009009D36046B11A98418E46844688
:10029000009801990025401C6941DD0752082A4356
:1002A0005B08641EE6D57246634603B0F0BDFFE707
:1002B0002046284307D00020C0430146C046C04620
:1002C00022462B46F1E700200146F7E70FB41CB5A4
:1002D0000C0007AA009007D04142A14202D30019A6
:1002E000401E01E00020C043074B7B44694601905B
:1002F000069800F0E4FD0020002C01D00099087061
:100300001CBC08BC04B01847F70B0000F3B504464A
:10031000002081B020622046E168884700287AD01A
:10032000252802D06268A16871E0E16820460025B6
:10033000884706460020E0610746A0612A2E0AD0C1
:10034000304604F0D9FB002827D0B8000019303E11
:100350000090866119E00298BA00121902C89161F2
:1003600002902046E1688847012F064617D1E069D0
:1003700000281FDA202085431CE000980A218069AC
:10038000484300998019303888612046E1688847E1
:10039000064604F0B1FB0028EFD1012F0AD02E2E23
:1003A00008D12046E16888470646202005437F1C87
:1003B000022FC3DBA069002803DA4042A0610120BC
:1003C0000543E80701D010208543002E23D0304696
:1003D0004138192803D80120C002054320362046A1
:1003E00025603146029A1546FFF7A8FE00280BD07B
:1003F000012806D0ED1DE808C000083002908AE709
:1004000009E02D1D029586E762683046A168904795
:10041000206A401C7EE7206AFEBD000030B5441C07
:1004200003E00178401C00290DD08107F9D10B4B66
:10043000DD0104C8D11A91432940FAD0001B0A06F5
:1004400003D0C01E30BD001B30BD0A0401D0801E89
:1004500030BD0902FCD0401E30BD00000101010189
:1004600001E004C0091F0429FBD28B0701D50280DB
:10047000801CC90700D00270704700290BD0C30749
:1004800002D00270401C491E022904D3830702D502
:100490000280801C891EE3E70022EEE70022DFE7EE
:1004A000002203098B4273D3030A8B4258D3030BF8
:1004B0008B423CD3030C8B4221D312E003460B4307
:1004C0007FD4002243088B4274D303098B425FD34D
:1004D000030A8B4244D3030B8B4228D3030C8B4279
:1004E0000DD30902FF2212BA030C8B4202D312125F
:1004F000090265D0030B8B4219D300E0090AC30B34
:100500008B4201D3CB03C01A5241830B8B4201D3E0
:100510008B03C01A5241430B8B4201D34B03C01AC9
:100520005241030B8B4201D30B03C01A5241C30A41
:100530008B4201D3CB02C01A5241830A8B4201D3B2
:100540008B02C01A5241430A8B4201D34B02C01A9C
:100550005241030A8B4201D30B02C01A5241CDD241
:10056000C3098B4201D3CB01C01A524183098B428C
:1005700001D38B01C01A524143098B4201D34B0175
:10058000C01A524103098B4201D30B01C01A5241D8
:10059000C3088B4201D3CB00C01A524183088B425F
:1005A00001D38B00C01A524143088B4201D34B0048
:1005B000C01A5241411A00D20146524110467047BA
:1005C0005DE0CA0F00D04942031000D340425340BF
:1005D0009C46002203098B422DD3030A8B4212D37F
:1005E0008901FC2212BA030A8B420CD389019211B1
:1005F0008B4208D3890192118B4204D389013AD0EE
:10060000921100E08909C3098B4201D3CB01C01AC2
:10061000524183098B4201D38B01C01A52414309D5
:100620008B4201D34B01C01A524103098B4201D3C3
:100630000B01C01A5241C3088B4201D3CB00C01A30
:10064000524183088B4201D38B00C01A5241D9D248
:1006500043088B4201D34B00C01A5241411A00D2C9
:1006600001465241104663465B1001D34042002BC5
:1006700000D54942704763465B1000D3404201B544
:100680000449002802DC491C084000E00846C04636
:10069000C04602BDFFFFFF7F7047704770470000F4
:1006A0000246C80FC00781434B0030B54B405B008A
:1006B0009B0D20D01923DB06C91801231B05994285
:1006C00020DB0324A40704251346AB400BD3002BE7
:1006D00004D1EB0613409B00E34204D401246407D9
:1006E000002312195941FF231B0599420BD2C9005F
:1006F0000143500F09E0CB0204D501430803024334
:1007000005D0054830BDFF21C905084330BD084666
:1007100007210905884330BD0000C07F1F22030C5C
:1007200002D10F22000402D0030E03D004E0002007
:10073000014670470002083A030F01D10001121F61
:10074000830F01D18000921E002801DB4000521E61
:10075000120551184205C012411810467047C10FCA
:10076000C90700D04042012292071143D6E7012178
:100770008907D3E7F0B58B4C0F09254689B0BD43F7
:100780007BD01D092646AE43FAD00E465E40274078
:10079000F60F3E43254071D024012142FBD0FF24B7
:1007A000AD19A4042D1B039501252D05DB02DB0AE1
:1007B000C9022B43C90A29431E010901040F130F63
:1007C000050121431701880B820391432D098C46B3
:1007D000A90B1E438A039543B30B9A0396433F0923
:1007E000BA0B9403A74302962E467E430497B6465F
:1007F0004E19D7190C460196544305977E43371B73
:100800007646BF1B3601B646BE0B361900967646B5
:10081000BC043719009C01D3641C00946400002FB1
:1008200001D001263443029E049F754366467E43F1
:100830000496760034196E0034190094029C019ECF
:100840001C196643751BAE46069465464519059C02
:1008500005956C43594375460891691A0191049EA8
:1008600001465143A41B0491611A009C0791E106C3
:1008700005D061090122114302E072E06EE06109D6
:10088000089D00272C0A2D066918049D7C412A0A20
:100890002D066918019D6241AC0DAD026D185441E1
:1008A000079A910D920255196141029A6446584384
:1008B0005443069B059A5A43121A131B9A0E9B0126
:1008C0005B187A41010B0005C3185141220A20062A
:1008D00044195A419A4200D2491C012040028142E7
:1008E00003D315230226F64302E014230326F6431E
:1008F0002020C51AA9401746AF40DA400A432046D7
:100900000399D8400914731819055118039A3843EC
:10091000D2075140AC4009D00122944006D30022B6
:10092000401C5141002C01D1400840001E4A934216
:1009300012D3012203989206904207DB052040075C
:1009400009181A480143C012414004E0032040073F
:100950000818C10FC907002009B0F0BD0020F10739
:10096000FAE705180C464C4111486D42A04115D3D9
:1009700094181A465A410E48644290410ED3012001
:100980004A004005824209D35A00824206D35940A8
:10099000C90F084AC90700201143DDE700200649B6
:1009A000DAE700000000FF07FE070000FFFFFF7FFF
:1009B0000000E0FF0000F07F0000F87F0121C90582
:1009C0000123411842001B06D3185B0E0AD0C11048
:1009D0000722D206891840075242D14201D552005F
:1009E00089187047090208D50146002A03D0C10FB3
:1009F000C9070020704710467047420202D000200D
:100A000002497047072109050143F4E70000F87F18
:100A10000102C21504D00123DB071943002A0ADBB7
:100A20009E239A1A02D40846D0407047FF22410004
:100A30001206914201D900207047C017C043704789
:100A40001F22030C02D10F2200041CD0030E01D17F
:100A50000002083A030F01D10001121F830F01D1D8
:100A60008000921E002801DB4000521ED205511862
:100A7000021251181922904004D3491C002801D1B8
:100A80004908490008467047C10FC90700D04042D5
:100A9000012292071143D3E701218907D0E7000023
:100AA000FFB50C461E468FB003CA089009914F004F
:100AB0007D0D00D16D1E002108460020C046032197
:100AC000099A89050840002A03DA82008018400844
:100AD0000840800D01280A9002DD0020C0430A90E2
:100AE000089807430DD0F048F049281848430714E8
:100AF000189800281DD07542291E1DDD0A98424213
:100B00001BE01898012802D00020302104E00020CA
:100B1000F24305E02154401CB042FBDB304600228A
:100B2000189B002121540F998B600A60486013B014
:100B3000F0BDBD1B6D1CDFE70A9A002900DA69428F
:100B40000BA800F05DFA0BAB07CB03AB07C308990A
:100B5000099800F0C1FA6B4607C30146D44809184A
:100B6000002D00910BDDD24903980A9A49424018A2
:100B7000002303A90390684600F01EFD08E00399D6
:100B80000A9A0023081803A90390684600F0BEFCE7
:100B90006B4607C30004000C03D00020C04341088B
:100BA00000E01046189A002A03D000220092154651
:100BB0001EE0751E05D400F0A1F9303262556D1E9D
:100BC000F9D501220843079602D000227F1C04E0D9
:100BD0002078302801D100227F1E002A069787D076
:100BE0001EE0112D07DA00F089F9303262556D1CD4
:100BF00002460A43F5D1084303D00098002819D0D3
:100C00000EE00021681E05E0235C625C6354225400
:100C1000401E491C8142F7DBA81B401E0795069029
:100C2000079A18990020A0540F98079B069A816094
:100C30000CC07CE711260020189059E7D21DF0B5B2
:100C40000D460446D10893B0C90003C90C900D911C
:100C500003F024FF02460D98C00F01D02D2007E0BD
:100C60002068810701D52B2002E04007C00F40011A
:100C7000032A0F9001D0072A05DB034629462046A8
:100C800000F07AF90EE12078800601D5E76900E0EE
:100C900006272846652D04D0662814D0672D69D113
:100CA0002DE00020112F009001DB112300E07B1CC0
:100CB0000CAA03A910A8FFF7F3FE119900261098BB
:100CC0007D1C0E9142E001203B460CAAC0070B9010
:100CD0000120009003A910A8FFF7E2FE119D1298D1
:100CE0001099002600280E9501D1781C0D18781B4C
:100CF00002D446427D1C761EE81B00903AE0012F8C
:100D000000DA01270020112F009001DD112300E0FF
:100D10003B460CAA03A910A8FFF7C2FE11993D4655
:100D2000109800260E91217809070BD40E99A9423C
:100D300000DA0D4603A9012D04DD4A19203AD27FBD
:100D4000302A06D0B84201DA011D04DA01210091EF
:100D50000FE06D1EEFE7002802DC86192D1A03E074
:100D6000411CA94200DD0D46801B401C0090012063
:100D7000C0070B902078000705D40098A84202DB3A
:100D80000020C043009069460020C8720B980121E2
:100D900002AF0337C907884225D0022010902B20CC
:100DA00011900B9800280BDA40420B902D201190E7
:100DB00006E00B9800F050FC30317F1E0B9039702C
:100DC0001099481E00291090F3DC0B980028F0D1F0
:100DD00011987F1E38702088000501D5452000E05D
:100DE00065207F1E387001A8C01BC01D0B900F9896
:100DF000002800D0012041190098C01709180B984D
:100E00000818A169081A401EA0612078C00602D403
:100E10002046C046C0460F98002805D06268A168E9
:100E20009047206A401C20622078C00625D52046C5
:100E3000C046C04621E0002E07DB0E98B04204DD1C
:100E400003A86268805DA16802E06268A168302042
:100E50009047206A761C401C20620098401E0028A3
:100E600000900AD100F046F8C06862680168405CF2
:100E7000A1689047206A401C206228466D1E002809
:100E8000D9DC07E062683878A1687F1C9047206A47
:100E9000401C20620B99481E00290B90F2DC204672
:100EA000C046C046032042E601FCFFFF104D000093
:100EB000E1DFFFFF01694A1C02610878704700B555
:100EC0008FB0029100210591054901937944039166
:100ED000114604906846FFF719FA0FB000BD0000F4
:100EE000E5FFFFFF0CC908399A4202D2531C0B6080
:100EF0001070704700487047380000200B4670B5EE
:100F0000024689078008084319469D08141AA9411A
:100F100025090807054308092C194841250A010637
:100F20000D43010A2C194141200C0D0428430D0CDE
:100F300000194D41002140194D41C008690708437F
:100F4000E908840F8D002543840024184D4124199D
:100F50006D41121BAB4107E00925ED432C115219DD
:100F600063410024401C61411C460A250026551B94
:100F7000B441F1D270BD0000F8B51F46044601230C
:100F80000068DB02032601461840072A05DB00281B
:100F900001D017A506E017A504E0002801D016A58A
:100FA00000E016A5102081432160A069C01E002F1B
:100FB000A06101D0401EA0612046C046C046002F5F
:100FC00009D038466268A1689047206A401C2062B8
:100FD000C01C206206E0206AFAE762682878A168EF
:100FE0006D1C9047761EF8D22046C046C046F8BD1C
:100FF0004E414E006E616E00494E4600696E6600BD
:10100000F7B516468AB0334878446C4603467C33BD
:10101000C06F5A689B680DC42E487844763003AC84
:101020000DC80DC43720C001081837211B30FFF749
:1010300045FA05460C46803D1B3C02D56442012022
:1010400000E000200027099010E0E0070CD00C2001
:1010500020497843794432464C3941186846012387
:1010600000F054FA6B4607C364107F1C002CECD1CF
:10107000184F7F442E3F16E0E80712D02001C01918
:101080000EC80691089307920068F04201D19819A2
:1010900008903246012306A903A800F037FA03ABF3
:1010A00007C36D10641C002DE6D10998002806D0F6
:1010B00032466946012303A800F07EFA05E00123C9
:1010C0003246694603A800F021FA0A9B07C30DB017
:1010D000F0BD0000EC3D0000034640000A4610B59C
:1010E000400D0BD00121C9070F24A40200191C03D5
:1010F00064082143540D2143D20207E0002101205E
:10110000F2E7D40F490021435200401E0029F8DACB
:10111000DB0FDB07184310BDFFB50D46144685B045
:101120004868516803F0A1FC00910190A868A1688B
:1011300003F09BFC02910390A868616803F095FCA2
:10114000029A12188242029201D2012000E000208D
:10115000019A0B18D2180028019202D08A4202D9B3
:1011600003E08A4201D2012000E000200099081823
:1011700000906868A16803F078FC029A1218824215
:10118000029201D2012000E00020019A0B18D2182F
:101190000028019202D08A4202D903E08A4201D299
:1011A000012000E0002000990818009028682168BC
:1011B00040004900400849084018FA49471814E01F
:1011C00001994000C90F084300900198029940001E
:1011D000C90F08430190029803994000C90F0843C2
:1011E0000290039840007F1E039000980028E7DAE1
:1011F0000898002801D0EC4E00E00026B74201DA42
:10120000012000E00020002804902AD0F71BF806F7
:10121000C00E15D0029B2021091A039A8B401A4355
:101220000392029A019BC2408B401A430292019A98
:10123000009BC2408B4000991A430192C14000912B
:101240007B110DD06F460320C11A03D50021820007
:10125000B95003E08A008100BA587A50401EF3D595
:10126000374603980299002800D0012001430898CE
:101270000291002808460CD0002800D001200199D6
:10128000019A490508430121D20AC902D2020192FA
:1012900000E001210E9B0122D207012B02D0002B7E
:1012A00003D013E0002807D120E0904204D89042F8
:1012B0000CD1019B0B4209D0019B5918019105D11A
:1012C0000099491C009101D17F1C009200280DD08B
:1012D000102108460020C0460498002806D00F9828
:1012E000002803D0082108460020C046286821684D
:1012F000019B009A4840C10F0598C90739430EC0A9
:1013000009B0F0BDFFB587B0099A089808995368ED
:10131000926840688968964600220393174694466F
:10132000089A12685300099A5B0812685200520822
:101330009A1A9E4BD4180A9A002A01D0352200E04E
:10134000402206920022012315460492DB070593F2
:1013500024E0002D05D175460346039E4D1BB34185
:1013600009D375466646039B491B049D9841059B1E
:101370007519AC465F4163463B4308D0059B049E0C
:10138000DD0776082E435B080496059301E0521EA4
:10139000641EC50FED0749184041521C069B9A4236
:1013A000D7DB002D04D17546039A6B1A824101D216
:1013B00003200CE0039A0B466B404240134303D0DA
:1013C000014303D0012002E0022000E0002061463A
:1013D00001910021009702910A99002905D06146E8
:1013E00040020143704B019102E08007002302900C
:1013F0009C4201DA012000E0002007003AD01A1BCD
:10140000D006C00E15D0029D2021019C091AC540AE
:101410008C402543029C8C4000D001242543019C34
:101420000295009DC4408D4000992C430194C14019
:10143000009154111DD06D460221002202290CD1C9
:101440000320001B07E0002804DB8600AE59002EB5
:1014500000D00122401C0328F5DB081B02D58800C0
:101460002A5004E08000285810438A00A850491EE2
:10147000E3D51C460A98002802980CD0002800D01A
:1014800001200199019A490508430121D20AC902A4
:10149000D202019200E00121109B0122D207012B10
:1014A00002D0002B03D013E0002807D11FE09042A8
:1014B00004D890420CD1019B0B4209D0019B5918D2
:1014C000019105D10099491C009101D1641C009241
:1014D00000280CD0102108460020C046002F06D05E
:1014E0001198002803D0082108460020C04608981B
:1014F0000999019A009B006809684840C10F079844
:10150000C907214382600AC00BB0F0BD00B585B0A9
:10151000019300920A460146002302A8FFF7FCFD52
:1015200002A807C805B000BDFFB50A461F4685B032
:101530000799019301230091014602A8FFF7ECFDF2
:1015400002990398049ECA0F4900D20700920F2205
:10155000490892028C1A0021002800DB0C46450045
:1015600013486D08844214D3079A002A04DA441EF3
:101570000026104DF64302E004460D460E461021AB
:1015800008460020C046002F03D004210846002052
:10159000C0462005E90A0843009908436905F20A94
:1015A0001143ADE602C0FFFF013C0000FF3F000019
:1015B000FF070000FFFFFF7F00B585B00193009299
:1015C0000A460146002302A8FFF79CFE02A807C8AE
:1015D000A8E7FFB50A461F4685B007990193012386
:1015E0000091014602A8FFF78DFE02990398049E20
:1015F000CA0F4900D20700920F22490892028C1AA2
:101600000021002800DB0C46450011486D0884428B
:1016100014D3079A002A04DA441E00260D4DF6431F
:1016200002E004460D460E46102108460020C04642
:10163000002F03D0042108460020C0462005E90AF7
:101640000843009908436905F20A114358E600006F
:10165000FF070000FFFFFF7F01468008081A02090C
:101660001018020A1018020C1018C0088200121874
:101670005200891A01E0401C0A390A29FBD270473E
:1016800010B5FF231B0644009C421DD84C009C4211
:101690001AD80346124A0B4307D4401A02D3EFF379
:1016A000008010BDEFF3008010BD081A03D3EFF3E4
:1016B0000080904305E0EFF3008001219043C907CB
:1016C000084380F3008810BD0D231B041A4204D088
:1016D0001146002000F08AF810BD00F09FF810BD00
:1016E0000000009000487047180000207546FFF782
:1016F000F9FFAE46050069465346C008C00085465E
:1017000018B020B5FEF748FD60BCB646002600279D
:10171000C0C5C0C5C0C5C0C5C0C5C0C5C0C5C0C5A1
:10172000403D490849008D46704710B50446C04603
:10173000C0462046FEF71FFD10BD000082078B0744
:101740009A423FD170B5920F0AD0032402780B78E9
:10175000401C491C002A33D09A4231D12042F5D195
:10176000214EF40104C808C9951B9543254018D1A2
:101770009A420FD104C808C9951B9543254010D142
:101780009A4207D104C808C9951B9543254008D142
:101790009A42E7D012BA1BBA01209A4200D24042C4
:1017A00070BD12BA1BBA2DBA18241000E0401900FF
:1017B000E140401A05D12E00E64002D1083CF4D1A8
:1017C000D01A70BD02780B78401C491C002A09D041
:1017D0009A4207D102780B78401C491C002A01D09C
:1017E0009A42EFD0D01A704701010101C80212D508
:1017F0004803400F002804D0C803C043012188409B
:101800007047EFF300800001000903210907084336
:1018100080F30088704700207047000010B5024830
:1018200000F004F810BD00000000C07F10B50C46A9
:101830001107090F092904D00A290AD008290CD157
:1018400004E011460820FFF7D1FF06E0510606D557
:1018500001E0510601D50120C007214610BDD10687
:1018600007D501010909CC084907000E0006044309
:1018700009E0410F20024907000A0143200E00063B
:101880001D22D14101430846E7E700000149182025
:10189000ABBEFEE7260002007047000070B582B0C4
:1018A00004460068816803220A40012A02D10168C7
:1018B000C90747D18168254A11420AD0606D1021BD
:1018C00001436165A06D01252843A065284602B04B
:1018D00070BD816801220A43826088480068884997
:1018E00002F0C8FF01900198002817D00198401E0F
:1018F00001900198002811D00198401E0190019894
:1019000000280BD00198401E01900198002805D0B6
:101910000198401E019001980028E7D100F0A2FB39
:10192000064620680068002500E00068C007CDD1A9
:1019300000F098FB811B20680B29F6D30168C907CA
:10194000F3D1BBE70025284602B070BD1700008028
:10195000F0B583B005465020285C012803D102244D
:10196000204603B0F0BD2F46503701243C70286854
:10197000816803231940012902D10168C90732D1C6
:10198000812149006A6D8A43911C6965C168019192
:10199000C16802939943C160E10782680A4382608B
:1019A00000F060FB06462868816800290ED500F02B
:1019B00059FB811B28680B29F6D381680029F3D5D0
:1019C000686D10210143022081430FE00299019AC2
:1019D0000A40C1681143C160686D204302218843F9
:1019E0006865002403E0686D2021014369650020DB
:1019F0003870204603B0F0BD70B582B05022825CD2
:101A0000012A02D1022002B070BD0446503402689F
:101A100093685B0711D40E68496836483040A94D79
:101A2000354B994212D1916A81439162700320D45F
:101A3000B00325D4F0032FD529E0416D20220A43BD
:101A4000426501200021217002B070BD916A0143FE
:101A50009162700325D4B00304D501208005296864
:101A600001432960F00317D50120010628680843C7
:101A700011E00120C005296881432960B003D9D550
:101A800001208005296881432960F00304D50120E5
:101A9000010628688843286000200021217002B0D8
:101AA00070BD0120C0052968014329601348006802
:101AB000134902F0DFFE0A214143019101980028F9
:101AC000C9D00198401E019001980028C3D0019808
:101AD000401E019001980028BDD00198401E019041
:101AE00001980028B7D00198401E01900198002865
:101AF000E7D1B0E7FFFF0700011000001000002051
:101B000040420F000068006C70470000F0B583B0E1
:101B1000012500283ED0044606465036406D002878
:101B200003D0606DC00609D52EE000203070A0659E
:101B3000204600F0CBF8606DC00625D4206881688F
:101B4000490721D481214900626D8A43911C616556
:101B50008168032211405B4B012902D10168C9074A
:101B60002ED161680125EE07B14205D0AD07A9422B
:101B700002D09507A94210D19207056995430561E6
:101B800002690A43026113E000203070606D102189
:101B900001436165284603B0F0BD0269AA430261B2
:101BA0000F2292041D6895431D601A680A431A604B
:101BB000C16818229143C160A168C2680A43C2602B
:101BC0002246203201214D061E68AE431E60656B21
:101BD0006D061E682E431E608368DB0003D40B076E
:101BE00085681D4385600291C368374D1D40C560FF
:101BF00023699B1E5D425D41AB00E6681E4315787C
:101C00006B033343266B1E43137B5B003343A66990
:101C1000E769B6031E43FB033343C6681E43C66031
:101C2000676A06460C36FF230193C2339F4216D1E2
:101C300051780129029F1BD00269E16B012929D14A
:101C4000019989008A430261234640330ECB0A433F
:101C50001A4301691143016102693A431EE0336886
:101C6000A16A19433943316051780129029FE3D1B8
:101C7000002D07D0616D20220A4362652646583642
:101C80003A4600E03A043168114331600269E16B81
:101C90000129D5D0D10702D00269BA430261416956
:101CA000072291434161A16B42690A4342610025C9
:101CB000A565606D3843022188436065284603B0FE
:101CC000F0BDC046082701401902FEFF10B586B0DE
:101CD00000210591049100680E4A904201D006B09F
:101CE00010BD012042020C4B9C6814439C601A6892
:101CF00002431A601A680240009203910320029086
:101D0000019005200007009901A900F0D9F806B05C
:101D100010BDC046002401402C100240F0B581B037
:101D20000D460446014650314069082802D1009111
:101D3000082705E02068C068C00767D100910C271C
:101D400000F090F906462168086838421ED001204C
:101D50004202636D13436365CA681205920F67D12F
:101D6000224620321278002A62D10A6812075FD513
:101D70008A68520753D4224654324B680C25AB4331
:101D80004B60FF2502351368AB434FE0681C39D028
:101D9000002D1BD10868384221D008683842D6D1BE
:101DA000086838421BD008683842D0D108683842E9
:101DB00015D008683842CAD1086838420FD0086880
:101DC0003842E7D0C3E708683842C0D100F04AF98A
:101DD000801B2168A842F6D908683842F3D1002058
:101DE00000990870606D042101436165032001B012
:101DF000F0BD08683842AAD108683842A7D10868FF
:101E00003842A4D108683842F3D0A0E70020087017
:101E1000606D202101436165012001B0F0BD626D5C
:101E200020231343636522465832A36D0343136096
:101E3000A2690020002A01D001B0F0BD0C220A6086
:101E400001B0F0BD70B50446006881680220490702
:101E50000FD45021615C01290BD025465035012655
:101E60002E70E069012805D02046FFF717FD0028F5
:101E700000D070BD606D08490140300208186065EF
:101E80000020A06521681C220A6028708A6804234B
:101E900013438B6070BDC046FEF0FFFFB0B5044633
:101EA00000F0E0F80546601C02D0044800780419F0
:101EB00000F0D8F8401BA042FAD3B0BD08000020C3
:101EC000F0B58AB0019009910A68002A00D1B7E004
:101ED0005C48019B834201D0062000E005200B21D5
:101EE00009075B180A21CB410093052B00D3009012
:101EF0000026354634460BE011433960641C0998CE
:101F000002681046E040B61C2D1D002800D197E065
:101F100001210846A0400240F0D0029404920591AD
:101F2000089503252946B140CA43099934464E68AD
:101F300033462B405F1E012F07920696039410D85C
:101F40000F4601998D681540FF68A7402F438F60A9
:101F5000F506ED0F029CA5404F6887432F434F6065
:101F600008E0032B029C05D12B46019F089D049A93
:101F7000039E22E0019FF8680799084009998D683F
:101F8000039EB5400543FD60022B089D049A14D1C1
:101F90001C2028400F218140E3089B00FB1806937A
:101FA0001D6A8D43099B196981402943089D069844
:101FB00001625868032306900340B34038680799CC
:101FC00008401843386006988003800F059B95D021
:101FD0001E490868184308600C2028400F218140E2
:101FE000032325469D431A4FEB598B4300998140AB
:101FF0001943E951144FB96809984068C30201D5E3
:10200000114300E09143089DB960F96883020AD545
:102010001143F960796883030AD491437960396880
:10202000C0030BD568E79143F96079688303F4D561
:10203000114379603968C00300D55DE791435CE7DF
:102040000AB0F0BD001C00500004014034100240F2
:1020500008000140002A02D018228150704728222F
:1020600081507047CD4800687047C046B0B5024601
:10207000034640335C780220202C17D11C78012CB9
:1020800014D024205870106802680124A243026012
:10209000220305689543056002680A4302600168EF
:1020A000214301600020187020215970B0BDB0B5E7
:1020B0000246034640335C780220202C17D11C785E
:1020C000012C14D024205870106802680124A24307
:1020D00002600F221202056895430902294301603C
:1020E0000168214301600020187020215970B0BDA3
:1020F000F0B581B0002822D0044605464035687806
:10210000002804D100202870204600F013F9242074
:1021100068702068026801218A4302600F2212065B
:102120006368934303618368194A13408360A3681B
:10213000E668012E06D1CE03334383600AE0012016
:1021400001B0F0BD2127BF023B438360022E01D1C5
:10215000CB02436043680F4E1E434660C368134082
:10216000C360226963691343A26912021A43C26001
:10217000E269236A1343036002680A430260002095
:102180006064202169702063A87001B0F0BDC04672
:10219000FF7FFFFF00800002F0B587B00691044684
:1021A0000146403148780225202800D0A0E0059162
:1021B0000878012800D19BE003930492012505983B
:1021C0000570FFF74FFF064621688869000419D49F
:1021D0002120059A507010209070002262640398AC
:1021E0006085049860626263608D000A4A4D0292C5
:1021F0001DD0069A2A404868484D0540091DFF2316
:1022000048481FE0EF0302E088693842E0D0FFF75A
:1022100029FF801B21681A28F6D388693842F3D039
:10222000606C202108436064059A51706DE0638DF5
:1022300048683A4A024006982840DDB22D042D181D
:10224000091D37480C9F2A4302430A602385608D8D
:10225000002845D0069830490840069012E0608D6D
:10226000208521684A68304B1A40C0B200041043F0
:1022700001225206091D069B184310430860608D19
:1022800000282DD020463946324601F007FD0125B1
:1022900000282DD12068616A0A788262608D401E14
:1022A0006085481C6062208D401E2085618D00295C
:1022B000E5D00004E3D100968021002220463B4671
:1022C00001F03AFC002813D1608D000AC7D0FF202E
:1022D000208521684868144A1040091D134ACAE73E
:1022E00020463946324601F096FC002803D00125ED
:1022F000284607B0F0BD20682021C16142680C4B20
:1023000013404360059A5170029D00201070907038
:10231000284607B0F0BDC046FF030000009800FC4F
:10232000002000020020FF01009C00FC0000FF01D3
:1023300000E800FEB0B586B000681149884201D0BF
:1023400006B0B0BD0F4C2068022108432060206811
:102350000840009004200590122002900320049071
:1023600000020190009801250395074801A9FFF795
:10237000A7FD6805E1680143E16006B0B0BDC04655
:10238000005400402C100240000400501D4800780A
:1023900002490A68101808607047C0460C03002004
:1023A00080B50848016840220A430260032000F01B
:1023B0000BF8002801D0012080BD00F027F8002094
:1023C00080BDC0460020024070B504467D20C0009C
:1023D0000C4E317802F04EFA01460B48006802F0CC
:1023E00049FA00F095FD0125032C08D8002806D1F4
:1023F0000025E84321462A4600F020F8746028466C
:1024000070BDC0460800002010000020044801688C
:10241000012211430160110742680A43426070477C
:1024200034100240002805D41F21084001218140BA
:10243000014801607047C04600E100E0002805D473
:102440000322034693430A4A9A1803E00C220240EF
:10245000064BD2188007C00E8901C9B28140FF2304
:1024600083401068984308431060704714ED00E003
:1024700000E400E0F0B589B0066801252F02EA0209
:1024800011462031884B0E427DD0059208902907D5
:10249000143B18680840049002D11868084318607B
:1024A00002930391814C2068384211D1206838434F
:1024B0002060FFF7D7FD06462068384208D1FFF7B5
:1024C000D1FD801B6428F7D90325284609B0F0BD4B
:1024D0000326340574484C38069001682140089B57
:1024E0005868024622400096360491420AD19A6802
:1024F000224091423246069E0DD001461140914243
:1025000006D008E001463140B1423246069E02D173
:1025100031688903D9D40194634B596807921140FB
:1025200021D0079A1040814203D008980078800695
:102530000AD408988068079A1040814213D00898FE
:102540000068059908420ED05868E9045A680A43A1
:102550005A605A688A435A600146079A9143596003
:10256000384200D08DE00898066805990E425AD18D
:10257000B106019C6ED40499002904D1029C216803
:10258000039A91432160F1070DD1B10713D471076C
:1025900019D4310720D43E4227D171062ED400250C
:1025A000310692D535E0196803229143C2680A4387
:1025B0001A60B107EBD519680C22914302690A43EE
:1025C0001A607107E5D5032189021A688A434169B7
:1025D000114319603107DED5032109031A688A43C4
:1025E0008169114319603E42D7D0032109041A685A
:1025F0008A43C169114319607106D0D5012189064A
:102600001A688A43416A114319600025310600D4D3
:102610005BE703218A0419689143006A0843186044
:10262000284609B0F0BD82681146079C2140A142AE
:102630000AD10198024003231B05069D2C689C4388
:10264000194B089814432C605A680A435A60B10623
:10265000019C90D542681146079D2940A94209D1A5
:10266000224003231B05069D2C689C430E4B0898B3
:1026700014432C605A680A435A600499002982D195
:102680007CE7FFF7EFFC0546904C074B5868800548
:1026900000D568E7FFF7E6FC401BA042F5D9009D96
:1026A000284609B0F0BDC0464C1002400070004002
:1026B000F0B583B00290002846D00E4682480068EC
:1026C000012101910840B04216D27F4908680125D6
:1026D000A843304308607D4CFFF7C4FC07467A48A6
:1026E00000682840B04207D0FFF7BCFCC01BA042E6
:1026F000F5D9032003B0F0BD029800688107814D31
:1027000006D52968F0229143029A92680A432A600A
:10271000C0071CD16C48006801273840B04225D959
:1027200069490868B8430860684CFFF79BFC054698
:1027300065480068C00719D0FFF794FC401BA04211
:10274000F6D9032003B0F0BD012003B0F0BD02981C
:10275000426829460C39012A32D0032A35D0022A90
:1027600039D109688903019833D538E002980068A7
:102770004107644C07D50721090222688A43029960
:10278000C96811432160000708D50720C0022168ED
:10279000814302980069C00008432060216808074F
:1027A000820F73487A4412795200974401617F681E
:1027B00038042146083909680904490F884075E042
:1027C00009684907019804D509E009688901019859
:1027D00005D403B0F0BD096889050198F9D52968C9
:1027E00003200190814311432960FFF73BFC07461A
:1027F00002984068354C032811D002281DD00128CA
:1028000029D128680C210140042900D182E7FFF773
:1028100029FCC01BA042F4D9019803B0F0BD286880
:102820000C2101400C2900D174E7FFF71BFCC01BF1
:10283000A042F4D9019803B0F0BD28680C210140F2
:10284000082900D166E7FFF70DFCC01BA042F4D9B0
:10285000019803B0F0BD28680007800F00D159E748
:10286000FFF700FCC01BA042F5D9019803B0F0BDF2
:1028700020460C380068C00612D53F4816E08A0290
:10288000120F3C4B9A5C0902890F491C2368DB0339
:1028900009D420460C380068C00603D4374802E04B
:1028A000364803E03448504301F0E4FF216809064C
:1028B000090F074A515CC840114908600548006883
:1028C000FFF782FD03B0F0BD002002408813000036
:1028D0008C4E00080C00002009480068094909686E
:1028E0004905490F084A515CC840704704480068D0
:1028F000044909688904490F034A515CC84070477C
:10290000100000200C1002409C4E000810B5834AB5
:10291000D1680807830F16487B441B795B009F44EE
:102920000108070D0120000451680904490F88407F
:1029300010BD1068C00613D50F4810BD8B021B0FC9
:102940000C4CE35C0902890F491CD468E40303D4EE
:102950001068C00606D40948584301F08BFF10BD2B
:10296000064810BD0448584301F084FF10BDC0461E
:1029700000127A00A44E000800093D000024F40073
:10298000F0B589B0002856D0644EF1680C220A4098
:102990000692012105910904F76804910F40079000
:1029A0000078C00710D00698082806D006980C2892
:1029B00000D0D5E0002F00D1D2E03068800303D5ED
:1029C00007984068002851D007980078800735D4D0
:1029D00007980078C0064CD407980078000766D4A2
:1029E00007990878400700D59AE00878800600D556
:1029F00021E10798846A002C1AD006980C2800D090
:102A00006DE1012C32D0F068049A0240079BD96A2C
:102A10008A422BD10F21890401401A6B914225D1A2
:102A2000032189050840596B8842059800D059E276
:102A3000002009B0F0BD012009B0F0BD079BD868A7
:102A4000810604D5316820221143316090430699F4
:102A5000042906D006990C2900D0ACE0002F00D044
:102A6000A9E03168490739D5002837D1059809B060
:102A7000F0BD0698002800D1B3E030680799C96915
:102A8000002900D107E101210A02104330604C0205
:102A9000FFF7E8FA05463068204200D00EE1FFF764
:102AA000E1FA401B0228F6D9032009B0F0BD306DD1
:102AB00007994969002900D1DCE00121084330650C
:102AC000FFF7D0FA0546306D800789D4FFF7CAFAC0
:102AD000401B0228F7D9032009B0F0BD1F210902CD
:102AE00072688A43196909021143716031680922C9
:102AF000914301433160F1680807820FFA485200A0
:102B00007A4492885200974403002001DE01260196
:102B100070680004410F04988840D4E1001002401E
:102B200001221107B06B0840029002D1B06B08433C
:102B3000B063019103921402F24F3868C00525D4A6
:102B4000386820433860FFF78DFA05463868204220
:102B50001CD1FFF787FA411B03206429F6D9C1E194
:102B60000798406805994C040499884209D00521CA
:102B70000904884200D0C9E0059880043168014307
:102B800031603068049908433060CFE0079880686E
:102B9000002800D122E1052109028842039A00D1D0
:102BA00033E1A04200D134E1306DA04330659102A1
:102BB000306D88432FE13168002800D1DDE0092223
:102BC000914301433160FFF74DFA054630684007F5
:102BD00000D5F9E0FFF746FA411B03200229F5D999
:102BE00080E130688005079B03D5D869002800D1B3
:102BF0003CE70720400371688143586A01437160D4
:102C0000FF21090672688A43196A090689187160EA
:102C1000400B04998140F0680006000FB64A105C32
:102C2000C140B6480160B6480068FFF7CDFB0028F8
:102C300000D057E1D0E6B06807998969002900D132
:102C4000ACE001210843B060706B08437063480337
:102C5000AE490A6802430A60FFF704FA0546B06805
:102C6000800700D5C5E6FFF7FDF9411B03200229C7
:102C7000F5D937E1012188433065FFF7F3F90546BF
:102C8000306D800700D4ABE6FFF7ECF9411B032061
:102C90000229F5D926E101210A02904330604C0255
:102CA000FFF7E0F905463068204200D194E6FFF7CF
:102CB000D9F9411B03200229F5D913E1072040036C
:102CC00071688143079A506A08437060FF200006CC
:102CD00071688143106A0006401870607CE6012725
:102CE0003806316881433160FFF7BCF90546022C94
:102CF00000D0AAE07F063068384200D1C1E0FFF77B
:102D0000B1F9411B03200229F5D9EBE03168049A9F
:102D100091433160316811400891089905998904FF
:102D200032688A433260002800D19CE0FFF79AF9AC
:102D300005463068204200D046E6FFF793F9401B75
:102D40006428F6D9032009B0F0BD3068C00600D46D
:102D500087E06748B7E08A02120F644B9A5C090269
:102D6000890F491CF368049C234200D0A8E0306816
:102D7000C00600D5A3E05F48A2E001208143316096
:102D8000FFF770F905463068400700D420E6FFF7EA
:102D900069F9411B03200229F5D9A3E001218843E9
:102DA000B060480359490A6882430A60FFF75AF93C
:102DB0000546B068800700D41BE6FFF753F9411BB6
:102DC00003200229F5D98DE01F200002716881439C
:102DD00007980069000208437060F9E5306DA04370
:102DE0003065039A9002316D814331655402464F3C
:102DF000FFF738F90546306D20421CD0FFF732F955
:102E0000411B0320B942F6D96CE09002316D0143B9
:102E10003165306D2043306554023B4FFFF722F996
:102E20000546306D204206D1FFF71CF9411B0320F7
:102E3000B942F6D956E002980028079900D0D4E5A7
:102E4000B06B019A9043B063CFE57C0630682042B6
:102E500000D1EDE5FFF706F9411B03200229F5D962
:102E600040E024482FE0FFF7FDF805463068204297
:102E700000D1A9E5FFF7F6F8411B03206429F5D935
:102E800030E0FD200004F1688143079B2C330DCB1B
:102E9000084310431843F0602748401C3168014341
:102EA0003160FFF7DFF804463068384200D0BFE5F4
:102EB000FFF7D8F8011B03200229F5D912E00C48CE
:102EC000504301F0D7FCF1680906090F0A4A515C2A
:102ED000C8400A4908600A480068FFF775FA0028E8
:102EE00000D175E509B0F0BD00127A00A44E0008CB
:102EF00000093D000024F4008C4E00081000002062
:102F00000C000020007000408813000020000140E9
:102F1000401E010E01D0012070470749074A50604A
:102F2000074803680B4003218907591801600020F6
:102F30009060072111607047FFFFFF0010E000E084
:102F400020ED00E010B53822825C012A01D1022078
:102F500010BD024638320223537000684368702463
:102F6000A3430C681C4383684460604CA04207DCA8
:102F70000124A407A04209D05F4CA04206D00AE079
:102F80005B4CA04202D05B4CA04204D18024A343FE
:102F9000496819438160002010700121517010BDF3
:102FA000B0B5002819D004460546383568780028A1
:102FB00004D100202870204600F04EF802206870EE
:102FC00020680168494B984209DC0122920790422F
:102FD0000BD0494A904208D018E00120B0BD444AC5
:102FE000904202D0434A904210D170229143A2688D
:102FF0000A4321463A3198420DDC01239B0798424F
:103000000FD03D4B98420CD013460FE00A462146A4
:103010003A319842F1DD364B984202D0354B984216
:1030200017D103231B029A4323691343802293433E
:1030300062691A430260E268C262626882620122C7
:1030400042610A710A704A708A70CA706A70002000
:10305000B0BD1346EAE7C04610B50068264988426D
:1030600005D00A49884210D11124102001E0102413
:10307000022007490A6802430A60002120460A46E6
:10308000FFF7DCF92046FFF7CDF910BD0010004036
:10309000381002403921415C012912D101463931F1
:1030A00002220A700068C26801210A43C2600F4A06
:1030B000904208DC8A0790420BD00F4A904208D019
:1030C0000EE0012070470A4A904202D0094A90421D
:1030D00006D1826807231340062B01D100207047D8
:1030E00002680A43026000207047C046FF070140A3
:1030F000001401400008014000040040F0B53822EF
:10310000825C012A01D10220F0BD0246383202233E
:103110005370504E3346773B0468A0681840A06057
:103120000D6800234F2D1EDC1F2D35DD202D37D0DF
:10313000302D35D0402D00D086E0206A256A01264A
:10314000B5432562A569F026B543CE6836012E4306
:10315000A6610A25A843496801432162A068472166
:103160000143302069E06F2D26DD01204703BD4279
:1031700040D00003854218461AD0702D64D1A06853
:1031800030404D688E68C9682E43090231430143BF
:10319000A160A068772139E0002D01D0102D53D116
:1031A000A06870218843054307202843A060184683
:1031B000137001215170F0BD502D29D0602D43D1E5
:1031C0001020C043256A054025620F252D03A669FE
:1031D000AE43CD682D033543266AA561A025AE43D5
:1031E0004968090131432162A16867250D43054003
:1031F000A56024E0A56835404E688F68C9683743EC
:10320000090239432943A1608003A168014315E005
:10321000206A256A0126B5432562A569F026B543D3
:10322000CE6836012E43A6610A25A84349680143AA
:103230002162A0685721014320208143A1601846E4
:10324000137001215170F0BD0120137001215170E4
:10325000F0BDC046FF00FFFF7047B0B504464020F8
:10326000C54320680169890717D5C168890714D546
:1032700029463E310161012121768069800703D012
:103280002046FFF7E9FF05E0204600F071F82046F0
:1032900000F06FF80020207620680169490718D5F2
:1032A000C168490715D529463C31016102212176C3
:1032B00080698005800F03D02046FFF7CDFF05E031
:1032C000204600F055F8204600F053F80020207604
:1032D00020680169090717D5C168090714D529466F
:1032E0003831016104212176C069800703D020466E
:1032F000FFF7B2FF05E0204600F03AF8204600F064
:1033000038F80020207620680169C90618D5C16800
:10331000C90615D529463031016108212176C069D9
:103320008005800F03D02046FFF796FF05E020467A
:1033300000F01EF8204600F01CF8002020762068DF
:103340000169C90709D0C168C90706D029463F31BC
:103350000161204600F00EF820680169490606D593
:10336000C168490603D50561204600F057FAB0BD93
:1033700070477047F0B58BB00249884204D00BB05B
:10338000F0BDC046E0010020024F796AC8073BD17A
:1033900002E0C04678000020B869FDF70FFB0A90F4
:1033A0000991F869FDF70AFB06460F4612480069C5
:1033B000FDF704FB04460D460F484069FDF7FEFA91
:1033C0000A9A0092099A01ABC4C30B4F0494059565
:1033D00006900791094D6424094A28462146FCF7C6
:1033E00075FF2846FDF71AF882B20648294623469B
:1033F00000F074FA796A07E078000020A802002043
:10340000C04E000820020020022900D2F5E18020F1
:1034100001F01AF8FBA001F05FF8B8690224214618
:1034200001F02CF8F84D284601F056F8892001F0FB
:103430000BF8F6A001F050F8F869214601F01EF8EB
:10344000284601F049F8C02000F0FEFFF0A001F08E
:1034500043F83869214601F011F8284601F03CF89C
:10346000C92000F0F1FFEBA001F036F878692146A1
:1034700001F004F8284601F02FF8796A022900D2F9
:10348000BBE10991B86AFDF707FB0646BD6828460F
:10349000314601F019FBE0490968002801D1BE60FE
:1034A00035460A910846314601F019FB002802D141
:1034B000D94806600A96F86AFDF7EEFA04462846EF
:1034C000214601F001FB002801D1BC6025460A9E7F
:1034D0003046214601F003FB002802D1CE480460AB
:1034E0002646386BFDF7D8FA04462846214601F0F7
:1034F000EBFA002801D1BC6025463046214601F098
:10350000EEFA002802D1C44804602646786BFDF725
:10351000C3FA04462846214601F0D6FA002801D114
:10352000BC6025463046214601F0D9FA002802D178
:10353000B94804602646B86BFDF7AEFA0446284643
:10354000214601F0C1FA002801D1BC602546304671
:10355000214601F0C4FA002802D1AF480460264693
:10356000F86BFDF799FA04462846214601F0ACFABB
:10357000002801D1BC6025463046214601F0AFFA53
:10358000002802D1A44804602646386CFDF784FA6E
:1035900004462846214601F097FA002801D1BC6074
:1035A00025463046214601F09AFA002802D19A4871
:1035B00004602646786CFDF76FFA044628462146DB
:1035C00001F082FA002801D1BC6025463046214630
:1035D00001F085FA002802D18F4804602646B86CB5
:1035E000FDF75AFA04462846214601F06DFA0028F4
:1035F00001D1BC6025463046214601F070FA002812
:1036000002D1854804602646F86CFDF745FA044669
:103610002846214601F058FA002801D1BC60254611
:1036200008953046214601F05AFA002802D17A481E
:10363000046026460A96386DFDF72EFA06463D468A
:10364000FC682046314601F03FFA73494F68002874
:1036500001D1EE6034463846314601F040FA002888
:1036600002D16D4846603746686DFDF715FA06468B
:103670002046314601F028FA002801D1EE60344698
:103680003846314601F02BFA002802D162484660E4
:103690003746A86DFDF700FA06462046314601F090
:1036A00013FA002801D1EE6034463846314601F065
:1036B00016FA002802D1584846603746E86DFDF7F3
:1036C000EBF906462046314601F0FEF9002801D10B
:1036D000EE6034463846314601F001FA002802D146
:1036E0004D4846603746286EFDF7D6F90646204617
:1036F000314601F0E9F9002801D1EE603446384640
:10370000314601F0ECF9002802D1434846603746C3
:10371000686EFDF7C1F906462046314601F0D4F93E
:10372000002801D1EE6034463846314601F0D7F921
:10373000002802D1384846603746A86EFDF7ACF93C
:1037400006462046314601F0BFF9002801D1EE605F
:1037500034463846314601F0C2F9002802D12E48DD
:1037600046603746E86EFDF797F906462046314633
:1037700001F0AAF9002801D1EE60344638463146FE
:1037800001F0ADF9002802D1234846603746286F82
:10379000FDF782F906462046314601F095F90028EA
:1037A00001D1EE6034463846314601F098F90028E0
:1037B00002D1194846603746686FFDF76DF9064635
:1037C0002046314601F080F9002801D1EE603446F0
:1037D0003846314601F083F9002802D10E48466090
:1037E00037462046394601F097FA2F466861089817
:1037F0000A9901F091FA28610999481C78620BB086
:10380000F0BDC04674313D00F74E000874323D00F3
:1038100072313D0072323D00000000207047B0B5AB
:1038200000282FD00446C06F002805D17820002141
:103830002154204600F028F82420E0672068016821
:103840000125A9430160204600F060FB012817D044
:10385000606A002802D0204600F08CFA0920C002DD
:1038600021684A6882434A6088682A2290438860B7
:103870000868012202430A60204600F0E5FA054686
:103880002846B0BD0120B0BD80B586B000681149A2
:10389000884201D006B080BD0F48C1680122039262
:1038A00053040B43C360016811430160006810407A
:1038B00000900420059003200490022002900C2028
:1038C000019005200007009901A9FEF7F9FA06B05A
:1038D00080BDC046004400402C100240F0B585B0C9
:1038E0000546C06F202811D1012000290CD01646B2
:1038F000002A09D001200703AA68BA4209D1CA07E1
:1039000007D02A69002A04D105B0F0BD022005B015
:10391000F0BD019103932C46503400200290606367
:103920002120E867FEF79EFB049066802680A86849
:10393000B84202D12869002801D0019F02E0002787
:103940000198029003990CE0029A108818490840E7
:1039500029688862921C0292374603996088401E4B
:1039600060806088002810D00091802100262846C1
:103970003246049B00F0E4FB002814D1002FE3D072
:103980003878296888627F1CE7E70091402100228F
:103990002846049B00F0D4FB2021E9670028B3D01F
:1039A000032005B0F0BD2020E867032005B0F0BD7E
:1039B000FF010000FEE70000F0B585B00E460446AA
:1039C0004030049020688169C90606D400210F4662
:1039D00001258269D30545D448E01021C161816980
:1039E000890637D4711C32D015460120002E6CD1C7
:1039F00086030390C7030297FEF734FB20684268F2
:103A00000499897883693B4209D0324007D1202943
:103A100005D0416831434160FEF724FB054620682C
:103A20008169890605D4FEF71DFB401B1A28F6D3D1
:103A300077E081698906029FDED50BE081698906FE
:103A400008D48169890605D48169890602D481690F
:103A50008906F3D52021C16101270421012582694E
:103A6000D30503D52B02C36129432F466B025605AC
:103A700006D41A420AD1002F0BD1002005B0F0BDA8
:103A8000AD02C561082529431A4202D0C361022252
:103A900011438269920701D5002282628269D207AE
:103AA00003D182690123134383614268214B134090
:103AB0004360606C084360642020049948700020D3
:103AC00008708870012005B0F0BD81030291039059
:103AD000C0030190019F03E0206881698906B9D481
:103AE000FEF7C0FA401BB042F6D92068426804993C
:103AF000897883693B420BD0029B1A4008D1202968
:103B000006D04168029A11434160FEF7ABFA0546C0
:103B1000206880698006DFD4FEF7A4FA401B1A28CB
:103B2000F6D3206881692421039F01258269D3058A
:103B300098D49BE700E800FEF0B583B01C4615461C
:103B40000E460746036899693140891B4A424A413B
:103B50000020AA4234D1611C2BD0002C32D1044663
:103B6000FEF780FA386881693140891B4A424A4130
:103B7000AA4240D080693040801B41424141A94265
:103B8000EED0204603B0F0BD99693140891B4A420E
:103B90004A41AA4214D199693140891B4A424A419B
:103BA000AA420DD199693140891B4A424A41AA4231
:103BB00006D199693140891B4A424A41AA42E3D061
:103BC00003B0F0BD01900898029006E08069304093
:103BD000801B41424141A9421AD1FEF743FA0299A2
:103BE000411A3868A142F1D981693140891B4A42A2
:103BF0004A41AA42EAD138464030796C202211432A
:103C000079644270002101708170012003B0F0BD21
:103C1000019803B0F0BDF0B581B005460068806939
:103C20000024800622D416460F46002903D129E03D
:103C3000806980061AD4284639463246FFF7BCFE12
:103C4000002827D1FEF70EFA811B2868B942EFD968
:103C500081698906ECD428464030696C20221143E2
:103C6000696442700021017081700124204601B016
:103C7000F0BDFEF7F7F9286881698906EBD5806900
:103C80008006F3D40024284621463246FFF794FEEE
:103C90000028EED00124204601B0F0BDF0B581B07F
:103CA0000546006880690024800716D416460F4632
:103CB000481C19D0002F26D1002428462146324620
:103CC000FFF77AFE002838D1FEF7CCF92868816921
:103CD000890728D580698007EED5204601B0F0BD60
:103CE000286880698007F8D40024E14328463246DA
:103CF000FFF762FE0028F3D00124204601B0F0BD9A
:103D000080698007E9D4284639463246FFF754FED9
:103D1000002812D1FEF7A6F9811B2868B942EFD915
:103D200081698907ECD428464030696C2022114310
:103D3000696442700021017081700124204601B045
:103D4000F0BDFEE77047704780B5FEF71FFB80BDF2
:103D50007047000080B50248FFF77FFA80BDC0467B
:103D6000A001002080B50248FFF777FA80BDC04669
:103D7000E0010020B0B5416ACA070CD18A0714D40B
:103D80004A071CD40A0724D4CA062CD48A0634D481
:103D90004A063CD44CE00122520403685C68944318
:103DA000826A22435A608A07EAD501221204036814
:103DB0005C689443C26A22435A604A07E2D50122F2
:103DC000920403685C689443026B22435A600A07BA
:103DD000DAD50122D20303685C689443426B224324
:103DE0005A60CA06D2D50122120303689C68944324
:103DF000826B22439A608A06CAD501225203036865
:103E00009C689443C26B22439A604A0610D50122F3
:103E10001305026854689C43056C2C4354609D4212
:103E200006D103235B0554689C43436C23435360D2
:103E3000090607D50121C904026853688B43806CC9
:103E400018435060B0BD0000F0B583B0044606468C
:103E500078360027F760FEF705F903462068016809
:103E600009071FD528480090012002904105002233
:103E700020461D4600F064F9002811D0EFF31080B1
:103E8000029981F3108821680A6880239A430A60A6
:103E900080F310882020E0670320377003B0F0BD66
:103EA00020682B460068400725D51748009001255B
:103EB000A9050022204600F043F900281BD0EFF3AB
:103EC000108085F3108809214901226813688B430B
:103ED000136080F31088EFF3108085F31088216859
:103EE0008A68AA438A6080F310882020B06003208B
:103EF000377003B0F0BD2020E067B06027666766CA
:103F00003846377003B0F0BDFFFFFF01F0B581B058
:103F1000044601680868784A0240A06823690343A0
:103F2000606918431043E2691043086003263003B8
:103F30004B688343E06818434860A5696F4B99421A
:103F400002D0206A284300E028460B252D028F6806
:103F5000AF4307438F606A48814214DD00276948F8
:103F600081421FD0684881421CD06848814243D1B9
:103F70006848C06C8007000F68A52F580125E8032A
:103F8000994213D13DE06248814205D0994233D134
:103F90006048C06C000A01E05E48C06C0C2505401A
:103FA0005D4847590125E80399422AD0824211D140
:103FB000082F00D999E0C0467F443F797F00BF4475
:103FC000043D47944D9494947600FEF785FC0028B8
:103FD00048D06CE0082F00D987E0C0467F443F7985
:103FE0007F00BF4404304182478282827500FEF721
:103FF00073FC00286CD141E010270125E8039942A9
:10400000D4D1082F71D8C0467F443F797F00BF4488
:10401000046C096C0F6C6C6C3800FEF75DFC0028BA
:104020002FD109E03B480068C00629D5404828E068
:10403000FEF76CFC002824D1002556E0FEF756FC64
:10404000002834D10EE0FEF751FC002840D115E0E5
:1040500030480068C00629D5354828E0FEF756FCF0
:10406000002824D1002540E02A480068C0062ED54B
:104070002F482DE0FEF74AFC002829D1002534E026
:104080002A4862685643B0422FD3110388422CD885
:10409000010E56080002002380195941FCF78EF8E2
:1040A00025494118254A91421FD21BE01F48400074
:1040B00061684A08101800F0DDFB0246103A1D49FD
:1040C0008A4212D201400007400F08430AE0174815
:1040D00061684A08101800F0CDFB01461039154AF6
:1040E000914202D22168C86000250020A066E066E7
:1040F000284601B0F0BDC046F369FFEF004800401C
:10410000FF4B0040004C0040005000400038014090
:104110000044004000100240B04E000801000000C2
:104120000400000002000000080000000024F40069
:1041300000093D00F0FF000000FDFFFF00FD0F0043
:10414000F0B587B015460F460668F1693940C91BBE
:104150004A424A410021AA4225D106930C9C002CD8
:1041600024D00B46611C26D1F1693940C91B4A4253
:104170004A41AA4214D1F1693940C91B4A424A4115
:10418000AA420DD1F1693940C91B4A424A41AA42AB
:1041900006D1F1693940C91B4A424A41AA42E3D0DB
:1041A000184607B0F0BD084607B0F0BDFDF75AFF4E
:1041B000032007B0F0BD029301467831039101213D
:1041C0000191C9020491059006E0C9693940CA1BF2
:1041D00051425141A9424BD1FDF744FF0699411A82
:1041E0000323A142DCD8059801680A685207ECD580
:1041F000CA6912073FD4CA692646049C2242344643
:10420000E3D01F4604980862EFF31082012181F386
:10421000108809235B010598046825689D43256083
:1042200082F31088EFF3108281F3108805980368F9
:104230009C688C439C60059882F31088026E012A6A
:104240000BD1EFF3108281F3108801680B68102402
:10425000A3430B60059882F310882021039B99608B
:104260000022026682661A70D960384607B0F0BD37
:10427000029807B0F0BD08250D62EFF31081019898
:1042800080F3108809225201059B1B681C68944327
:104290001C6081F31088EFF3108180F31088059A79
:1042A0001268936883439360059B81F31088196EAD
:1042B00001290CD1EFF31081012282F310881A68D2
:1042C00013681024A3431360059B81F310882021F9
:1042D000039A91600021196699661170D56007B044
:1042E000F0BD0000F0B58BB03220FDF7D7FD0AAA73
:1042F0000826D6700C2494703820049050703C200E
:104300000690107064250095029585484E2109910C
:1043100004273B46FDF740FF0520FDF7BFFD0AAA35
:10432000D670089494700498507006981070009598
:104330007B48099D29463B46FDF72EFF012007904B
:10434000FDF7ACFD0AAAD6700596947004985070DB
:1043500006981070029C0094714829463B46FDF770
:104360001BFF0A252846FDF799FD0AAAD670089872
:1043700090702820069050702C2616700094684883
:1043800009993B460397FDF707FF2846FDF786FD91
:104390000AAA8825D5708C249470069850701670DF
:1043A000029E00965E4809993B46FDF7F5FE079F81
:1043B0003846FDF773FD0AAAD5709470059C5470B9
:1043C000089D1570009656480999039BFDF7E4FE79
:1043D0003846FDF763FD0AAA1820D0701C209070A3
:1043E0005470157000964E48099D2946039F3B4620
:1043F000FDF7D2FE079C2046FDF750FD2046FDF755
:104400004DFD0AAA6820D0706C209070059C5470F5
:10441000089810700096424829463B46FDF7BCFEBE
:104420000798FDF73BFD0AAAC820D070CC209070F9
:104430005470089810700096394829463B46FDF79D
:10444000ABFE0BB0F0BDC04680B582B001010B469B
:10445000083301AAD3700C319170F0210140084655
:10446000083050700C31117064200090F6484E21D5
:104470000423FDF791FE02B080BDC04670B586B042
:104480000C46FCF79BFA0090019102A8082111A2AA
:10449000FBF71CFF012C1ADB02AEEB4D307801015B
:1044A0000B46093305AAD3700D3191700F21884353
:1044B0000146093151700D301070642000904E217A
:1044C00004232846FDF768FE761C641EE6D106B07C
:1044D00070BDC04625660000B0B582B001780029E5
:1044E0001BD0451CD84C08010346093301AAD370E0
:1044F0000D3090700F2081430846093050700D3107
:104500001170642000904E2104232046FDF744FEE4
:10451000681C297800290546E5D102B0B0BDC04627
:104520004C010020A2B0FDF73BFF14AD281D242450
:104530002146FBF7B3FF04A8001D2146FBF7AEFFA1
:1045400003200390C002B9490A6882437D20070115
:10455000D01930300860002420941F9402261E9643
:10456000102018901496012017908005219028465D
:10457000FEF706FA002801D072B6FEE70296019710
:10458000139412941194039810900F200F900FA879
:1045900001252946FEF78CF8002801D072B6FEE707
:1045A0000A9408940A20049004A8FDF763FF0028E9
:1045B00001D072B6FEE718949D480168802211432D
:1045C0000160016811400491049901682943016068
:1045D00001682940049104990168029A114301601D
:1045E0000068104004900498052630070390AF023D
:1045F00039462246FDF72EFD17941694159514970B
:1046000014A90398FDF75CFC2C218A484454C46328
:1046100089498663AA042B020384FF23C2334362C1
:10462000846204630423446316C0046045608360AD
:10463000C4600461159414940C38FDF767FA0028DF
:1046400001D072B6FEE714952F031597794814A987
:10465000FDF7D2F9002801D072B6FEE77748149032
:10466000744814A9FDF7C8F9002801D072B6FEE716
:1046700073480C21734A04624462E1235B021CC04C
:10468000046044608160C46004610C38FFF7C7F8BF
:10469000002801D072B6FEE76B486C496C4A026094
:1046A000021D32C2046144618461C4610462FDF789
:1046B0001FFD002801D072B6FEE763480021FDF718
:1046C000D5FC002801D072B6FEE75F4800242146E1
:1046D000FDF7EDFC002801D072B6FEE75D484461AD
:1046E0005D4D5E4901600199021D32C2159414941A
:1046F000FEF756FC002801D072B6FEE7554814A913
:10470000FEF720FC002801D072B6FEE75448554958
:1047100001600199021D32C204614461179416942C
:10472000159405940494FEF73BFC002801D072B662
:10473000FEE714974A4814A9FEF7E0FC002801D0D0
:1047400072B6FEE7464804A9FEF7FCFB002801D03C
:1047500072B6FEE7FFF7C6FD3E48FEF79BFC354804
:1047600000242146FDF7F4F8002801D072B6FEE7D8
:10477000E04303903C4901E0314672602D4D2846EC
:104780000E46FDF75FFB28460399FDF7C7FA28465A
:10479000FDF7B8F9308080B2FBF7E1FF0024224634
:1047A000324F3B46FBF7E6FF2246314BFBF7E2FF79
:1047B000FBF776FFB0612846FDF744FB28460399D6
:1047C000FDF7ACFA2846FDF79DF9708080B2FBF743
:1047D000C6FF22463B46FBF7CDFF02942246244B00
:1047E000FBF7C8FFFBF75CFF0446F061B76938468A
:1047F000214600F09FF93F21090600F035FA3146C5
:1048000030627568092DB9D8A800081801902046B3
:10481000FCF7FEF8019C20653846FCF7F9F8A06229
:10482000681C0A28029AA7D00246A5E7007000403B
:104830002C100240F000002000240140020000047F
:1048400020020020004400404C01002082665000FD
:1048500000540040E0010020C05D00000010004056
:10486000A0010020000400407800002000A0744057
:104870000000303F43088B421AD3002203098B42C9
:1048800079D3030A8B425ED3030B8B4242D3030CD2
:104890008B4227D30902FF2212BA030C8B4202D3A8
:1048A0001212090203D0030B8B4233D31AE0D3E078
:1048B000411A8041401C704703460B4371D44308A2
:1048C0008B42F5D3002203098B4254D3030A8B4257
:1048D00039D3030B8B421DD3030C8B4202D3944676
:1048E0006EE0090AC30B8B4201D3CB03C01A5241BD
:1048F000830B8B4201D38B03C01A5241430B8B4273
:1049000001D34B03C01A5241030B8B4201D30B035B
:10491000C01A5241C30A8B4201D3CB02C01A524182
:10492000830A8B4201D38B02C01A5241430A8B4245
:1049300001D34B02C01A5241030A8B4201D30B022E
:10494000C01A5241CDD2C3098B4201D3CB01C01A48
:10495000524183098B4201D38B01C01A5241430952
:104960008B4201D34B01C01A524103098B4201D340
:104970000B01C01A5241C3088B4201D3CB00C01AAD
:10498000524183088B4201D38B00C01A5241430825
:104990008B4201D34B00C01A5241411A52411000C0
:1049A0007047CA0F00D04942031000D34042534021
:1049B00000229C4603098B422DD3030A8B4212D35B
:1049C0008901FC2212BA030A8B420CD3890192118D
:1049D0008B4208D3890192118B4204D3890137D0CD
:1049E000921100E08909C3098B4201D3CB01C01A9F
:1049F000524183098B4201D38B01C01A52414309B2
:104A00008B4201D34B01C01A524103098B4201D39F
:104A10000B01C01A5241C3088B4201D3CB00C01A0C
:104A2000524183088B4201D38B00C01A5241D9D224
:104A300043088B4201D34B00C01A5241411A00D2A5
:104A400001465241104663465B1000D34042704716
:104A500063465B1000D3404201B50021004201D003
:104A6000C9430846C046C04602BDF8B5040C8BB227
:104A7000264682B25E43104658430D0C370C36046E
:104A800000218019164679416E43370C360480198F
:104A9000264679416E438919F8BD00004900CA02D3
:104AA0000243100000D004204A0D01D0012210431F
:104AB000044A490D914201D102210843012800D145
:104AC00005207047FF07000010B500F079F8EFF3FC
:104AD0000080800001D5012010BD002010BD10B560
:104AE00000F098F8EFF300804000800F012801D01B
:104AF000012010BD002010BD30380A2801D201204D
:104B0000704700207047000010B500290AD00878CF
:104B1000002807D005487844FCF710FE002801D093
:104B2000002010BD0248784410BD000006040000BB
:104B3000FE03000070B50125ED0704004C4020D4B1
:104B4000441A01D2001B0919C60D4B00F2B2FF2A0C
:104B500029D01B0E2CD000020C0228432C43D31A60
:104B6000DC40051910D2280A02D3401C6D0611D072
:104B7000761EF6058019FF2A00DA70BDC00DC0054B
:104B800070BD694000F0CEF801200543C541521CBC
:104B9000761CE8E764089C40C90161408900E7D1C0
:104BA0000124A043E4E71B0E440200D0034870BD7B
:104BB000002AFCD1C00FC00770BD00BF0000C07F3D
:104BC0000123DB0502000A430DD4DA4203D49A42E2
:104BD00007D488427047D84214D4D94212D48842AC
:104BE000704780427047DA4203D59A42F9D5814234
:104BF00070475B004200DA4204D24A00DA4201D236
:104C00008142704710B5024AFCF73AFD10BD00BF63
:104C1000090013040123DB0502000A430DD4DA4224
:104C200003D49A4207D488427047D84214D4D94258
:104C300012D48842704780427047DA4203D59A42C4
:104C4000F9D5814270475B004200DA4204D24A0043
:104C5000DA4201D28142704710B5024AFCF710FDDA
:104C600010BD00BF0900160470B5420064414B003E
:104C70005C41120E39D01B0E38D0FF2A3CD0FF2BDE
:104C80003AD0D2187F3A40024902400A490A4518F0
:104C9000ED0106004E43000A090A48430104731A55
:104CA0004019190C4318990F04D05B0801214907DA
:104CB0005B1A521CD80904D3401CF50301D19D0690
:104CC00007D0FF2A08D2D50506D0E40720434019B3
:104CD00070BD0125A843F4E7002A01DCE00770BDA0
:104CE0002402FF202043C00570BD1B0EFF2A03D005
:104CF000FF2B01D0E00770BDFF2636064500B54208
:104D000006D84D00B54203D8D218FF2A00D0E7E7F5
:104D1000004870BD0000C07F70B50125ED0704009C
:104D20004C4022D4441A02D26C40001B0919C60D13
:104D30004B00F2B2FF2A4BD01B0E50D000020C02E7
:104D4000A8432C43D31ADC40051B05D5AD0019D36D
:104D50006D08761E521E37D0F605280A01D280193A
:104D600070BD70416D0603D070BD6940FFF7E8FE6D
:104D70009C4009026140490001D0401E70BD0124E1
:104D8000A04370BD6D081DD001202B0C01D12D0456
:104D900010302B0E01D12D0208302B0F01D12D0127
:104DA000001DAB0F01D1AD00801CEB0F01D16D00D8
:104DB000401C361A121A6D00680AF5054019012ABE
:104DC00002DB70BD002070BDC036300AC00770BD68
:104DD0001B0E440201D1FF2B00D1024870BD002AF6
:104DE000F0D070BD0000C07F03B402487844844610
:104DF00003BC60474DBEFFFF02400000000000A062
:104E00000000000005400000000000C80000000095
:104E10000C4000000000409C000000001940000011
:104E20000020BCBE0000000034400000BFC91B8E43
:104E300000000004B5400000504BCFD06607E2CF21
:104E4000010000006C4100003E8251AADFEEA73451
:104E500001000000D9420000DCB5A0E23A301F9703
:104E6000FFFFFFFFB4450000FD25A0C8E9A3C14F27
:104E7000FFFFFFFFFF3F0000000000800000000078
:104E8000FF3F000000000080000000000000000064
:104E900000000000010203040607080900000000EA
:104EA00001020304030406080C101820300000005F
:104EB00000000000040000000200000008000000E4
:104EC00054656D70313A20252E32662C2054656D64
:104ED00070323A20252E32662C2052616E67653280
:104EE0003A20252E32662C2052616E6765313A20B9
:104EF000252E32660D0A004300000000384F0008DE
:104F0000000000201800000004010008504F0008B5
:104F100018000020F8080000200100081C00000014
:104F200043000000F8FFFFFF0C0000000E0000002F
:104F30000F0000002E0000000000F0410000F041D2
:104F4000010000000400000000002000000000003C
:04000005080000C12E
:00000001FF
